{
  "contractName": "Authentication",
  "abi": [
    {
      "anonymous": false,
      "inputs": [
        {
          "indexed": false,
          "internalType": "string",
          "name": "email",
          "type": "string"
        }
      ],
      "name": "AdminLoggedIn",
      "type": "event"
    },
    {
      "anonymous": false,
      "inputs": [
        {
          "indexed": false,
          "internalType": "string",
          "name": "email",
          "type": "string"
        }
      ],
      "name": "AdminRegistered",
      "type": "event"
    },
    {
      "inputs": [
        {
          "internalType": "string",
          "name": "_email",
          "type": "string"
        },
        {
          "internalType": "string",
          "name": "_password",
          "type": "string"
        }
      ],
      "name": "registerAdmin",
      "outputs": [],
      "stateMutability": "nonpayable",
      "type": "function"
    },
    {
      "inputs": [
        {
          "internalType": "string",
          "name": "_email",
          "type": "string"
        },
        {
          "internalType": "string",
          "name": "_password",
          "type": "string"
        }
      ],
      "name": "loginAdmin",
      "outputs": [
        {
          "internalType": "bool",
          "name": "",
          "type": "bool"
        }
      ],
      "stateMutability": "nonpayable",
      "type": "function"
    }
  ],
  "bytecode": "0x608060405234801561000f575f80fd5b50610a868061001d5f395ff3fe608060405234801561000f575f80fd5b5060043610610034575f3560e01c8063901d032c14610038578063f8f98b7914610068575b5f80fd5b610052600480360381019061004d919061041d565b610084565b60405161005f91906104ad565b60405180910390f35b610082600480360381019061007d919061041d565b6101c9565b005b5f805f846040516100959190610532565b908152602001604051809103902090505f815f0180546100b490610575565b9050036100f6576040517f08c379a00000000000000000000000000000000000000000000000000000000081526004016100ed906105ff565b60405180910390fd5b826040516020016101079190610532565b604051602081830303815290604052805190602001208160010160405160200161013191906106af565b6040516020818303038152906040528051906020012014610187576040517f08c379a000000000000000000000000000000000000000000000000000000000815260040161017e9061070f565b60405180910390fd5b7fc0070dd13825f8a1cd7f44ddd61c01c979066b98337a97a638ab808b7be9fad6846040516101b69190610765565b60405180910390a1600191505092915050565b5f80836040516101d99190610532565b90815260200160405180910390205f0180546101f490610575565b905014610236576040517f08c379a000000000000000000000000000000000000000000000000000000000815260040161022d906107cf565b60405180910390fd5b6040518060400160405280838152602001828152505f8360405161025a9190610532565b90815260200160405180910390205f820151815f01908161027b9190610981565b5060208201518160010190816102919190610981565b509050507f78c6f9b92a1fb2f5ee24166b4a9a4e5ca13f295a291ec642a468b66b06c009c8826040516102c49190610765565b60405180910390a15050565b5f604051905090565b5f80fd5b5f80fd5b5f80fd5b5f80fd5b5f601f19601f8301169050919050565b7f4e487b71000000000000000000000000000000000000000000000000000000005f52604160045260245ffd5b61032f826102e9565b810181811067ffffffffffffffff8211171561034e5761034d6102f9565b5b80604052505050565b5f6103606102d0565b905061036c8282610326565b919050565b5f67ffffffffffffffff82111561038b5761038a6102f9565b5b610394826102e9565b9050602081019050919050565b828183375f83830152505050565b5f6103c16103bc84610371565b610357565b9050828152602081018484840111156103dd576103dc6102e5565b5b6103e88482856103a1565b509392505050565b5f82601f830112610404576104036102e1565b5b81356104148482602086016103af565b91505092915050565b5f8060408385031215610433576104326102d9565b5b5f83013567ffffffffffffffff8111156104505761044f6102dd565b5b61045c858286016103f0565b925050602083013567ffffffffffffffff81111561047d5761047c6102dd565b5b610489858286016103f0565b9150509250929050565b5f8115159050919050565b6104a781610493565b82525050565b5f6020820190506104c05f83018461049e565b92915050565b5f81519050919050565b5f81905092915050565b5f5b838110156104f75780820151818401526020810190506104dc565b5f8484015250505050565b5f61050c826104c6565b61051681856104d0565b93506105268185602086016104da565b80840191505092915050565b5f61053d8284610502565b915081905092915050565b7f4e487b71000000000000000000000000000000000000000000000000000000005f52602260045260245ffd5b5f600282049050600182168061058c57607f821691505b60208210810361059f5761059e610548565b5b50919050565b5f82825260208201905092915050565b7f41646d696e206e6f7420666f756e6400000000000000000000000000000000005f82015250565b5f6105e9600f836105a5565b91506105f4826105b5565b602082019050919050565b5f6020820190508181035f830152610616816105dd565b9050919050565b5f819050815f5260205f209050919050565b5f815461063b81610575565b61064581866104d0565b9450600182165f811461065f5760018114610674576106a6565b60ff19831686528115158202860193506106a6565b61067d8561061d565b5f5b8381101561069e5781548189015260018201915060208101905061067f565b838801955050505b50505092915050565b5f6106ba828461062f565b915081905092915050565b7f496e76616c69642070617373776f7264000000000000000000000000000000005f82015250565b5f6106f96010836105a5565b9150610704826106c5565b602082019050919050565b5f6020820190508181035f830152610726816106ed565b9050919050565b5f610737826104c6565b61074181856105a5565b93506107518185602086016104da565b61075a816102e9565b840191505092915050565b5f6020820190508181035f83015261077d818461072d565b905092915050565b7f41646d696e20616c7265616479207265676973746572656400000000000000005f82015250565b5f6107b96018836105a5565b91506107c482610785565b602082019050919050565b5f6020820190508181035f8301526107e6816107ad565b9050919050565b5f6020601f8301049050919050565b5f82821b905092915050565b5f600883026108377fffffffffffffffffffffffffffffffffffffffffffffffffffffffffffffffff826107fc565b61084186836107fc565b95508019841693508086168417925050509392505050565b5f819050919050565b5f819050919050565b5f61088561088061087b84610859565b610862565b610859565b9050919050565b5f819050919050565b61089e8361086b565b6108b26108aa8261088c565b848454610808565b825550505050565b5f90565b6108c66108ba565b6108d1818484610895565b505050565b5b818110156108f4576108e95f826108be565b6001810190506108d7565b5050565b601f8211156109395761090a8161061d565b610913846107ed565b81016020851015610922578190505b61093661092e856107ed565b8301826108d6565b50505b505050565b5f82821c905092915050565b5f6109595f198460080261093e565b1980831691505092915050565b5f610971838361094a565b9150826002028217905092915050565b61098a826104c6565b67ffffffffffffffff8111156109a3576109a26102f9565b5b6109ad8254610575565b6109b88282856108f8565b5f60209050601f8311600181146109e9575f84156109d7578287015190505b6109e18582610966565b865550610a48565b601f1984166109f78661061d565b5f5b82811015610a1e578489015182556001820191506020850194506020810190506109f9565b86831015610a3b5784890151610a37601f89168261094a565b8355505b6001600288020188555050505b50505050505056fea26469706673582212201f23239bf7de707c904dbe024d4c3afb0f37fa4f3c2f00b37bb479f80bbf559f64736f6c63430008150033",
  "immutableReferences": {},
  "source": "// SPDX-License-Identifier: MIT\r\npragma solidity >=0.4.22 <0.9.0;\r\n\r\ncontract Authentication {\r\n    struct Admin {\r\n        string email;\r\n        string password;\r\n    }\r\n\r\n    mapping(string => Admin) adminByEmail;\r\n\r\n    event AdminRegistered(\r\n        string email\r\n    );\r\n    event AdminLoggedIn(\r\n        string email\r\n    );\r\n\r\n    // Function to register a new admin\r\n    function registerAdmin(string memory _email, string memory _password) public {\r\n        require(bytes(adminByEmail[_email].email).length == 0, \"Admin already registered\");\r\n        adminByEmail[_email] = Admin(_email, _password);\r\n        emit AdminRegistered(_email);\r\n    }\r\n\r\n    // Function to login as an admin\r\n    function loginAdmin(string memory _email, string memory _password) public  returns (bool) {\r\n        Admin storage admin = adminByEmail[_email];\r\n        require(bytes(admin.email).length != 0, \"Admin not found\");\r\n        require(keccak256(abi.encodePacked(admin.password)) == keccak256(abi.encodePacked(_password)), \"Invalid password\");\r\n        emit AdminLoggedIn(_email);\r\n        return true;\r\n    }\r\n}\r\n",
  "sourcePath": "C:\\Users\\acer\\OneDrive\\Desktop\\Final-3\\contracts\\admin.sol",
  "compiler": {
    "name": "solc",
    "version": "0.8.21+commit.d9974bed.Emscripten.clang"
  },
  "schemaVersion": "3.4.16",
  "updatedAt": "2024-03-17T13:50:54.367Z",
  "devdoc": {
    "kind": "dev",
    "methods": {},
    "version": 1
  },
  "userdoc": {
    "kind": "user",
    "methods": {},
    "version": 1
  }
}