{
  "contractName": "Doctor",
  "abi": [
    {
      "inputs": [],
      "stateMutability": "nonpayable",
      "type": "constructor"
    },
    {
      "inputs": [
        {
          "internalType": "uint256",
          "name": "",
          "type": "uint256"
        }
      ],
      "name": "doctorList",
      "outputs": [
        {
          "internalType": "string",
          "name": "doctor_name",
          "type": "string"
        },
        {
          "internalType": "string",
          "name": "doctor_specialisation",
          "type": "string"
        },
        {
          "internalType": "uint256",
          "name": "doctor_ph_no",
          "type": "uint256"
        },
        {
          "internalType": "string",
          "name": "doctor_pass",
          "type": "string"
        }
      ],
      "stateMutability": "view",
      "type": "function"
    },
    {
      "inputs": [
        {
          "internalType": "uint16",
          "name": "doctor_id",
          "type": "uint16"
        },
        {
          "internalType": "string",
          "name": "_doctor_name",
          "type": "string"
        },
        {
          "internalType": "string",
          "name": "_doctor_specialisation",
          "type": "string"
        },
        {
          "internalType": "uint256",
          "name": "_doctor_ph_no",
          "type": "uint256"
        },
        {
          "internalType": "string",
          "name": "_doctor_pass",
          "type": "string"
        }
      ],
      "name": "storeDoctorDetails",
      "outputs": [],
      "stateMutability": "nonpayable",
      "type": "function"
    },
    {
      "inputs": [
        {
          "internalType": "uint16",
          "name": "doctor_id",
          "type": "uint16"
        }
      ],
      "name": "retrieveDoctorDetails",
      "outputs": [
        {
          "internalType": "string",
          "name": "",
          "type": "string"
        },
        {
          "internalType": "string",
          "name": "",
          "type": "string"
        },
        {
          "internalType": "uint256",
          "name": "",
          "type": "uint256"
        }
      ],
      "stateMutability": "view",
      "type": "function"
    },
    {
      "inputs": [
        {
          "internalType": "uint16",
          "name": "doctor_id",
          "type": "uint16"
        },
        {
          "internalType": "string",
          "name": "_doctor_pass",
          "type": "string"
        }
      ],
      "name": "doctorLogin",
      "outputs": [
        {
          "internalType": "string",
          "name": "",
          "type": "string"
        }
      ],
      "stateMutability": "view",
      "type": "function"
    }
  ],
  "bytecode": "0x608060405234801561000f575f80fd5b503360015f6101000a81548173ffffffffffffffffffffffffffffffffffffffff021916908373ffffffffffffffffffffffffffffffffffffffff1602179055506111528061005d5f395ff3fe608060405234801561000f575f80fd5b506004361061004a575f3560e01c806303b1a6cd1461004e578063127ca4b41461006a5780632a67f82d1461009d578063ad3072e6146100cf575b5f80fd5b61006860048036038101906100639190610a5c565b6100ff565b005b610084600480360381019061007f9190610b27565b610288565b6040516100949493929190610bdb565b60405180910390f35b6100b760048036038101906100b29190610c33565b610445565b6040516100c693929190610c5e565b60405180910390f35b6100e960048036038101906100e49190610ca1565b610640565b6040516100f69190610cfb565b60405180910390f35b60015f9054906101000a900473ffffffffffffffffffffffffffffffffffffffff1673ffffffffffffffffffffffffffffffffffffffff163373ffffffffffffffffffffffffffffffffffffffff161461018e576040517f08c379a000000000000000000000000000000000000000000000000000000000815260040161018590610d65565b60405180910390fd5b5f805f8761ffff1681526020019081526020015f205f0180546101b090610db0565b9050146101f2576040517f08c379a00000000000000000000000000000000000000000000000000000000081526004016101e990610e2a565b60405180910390fd5b6101fa61087e565b84815f018190525083816020018190525082816040018181525050818160600181905250805f808861ffff1681526020019081526020015f205f820151815f0190816102469190610fe5565b50602082015181600101908161025c9190610fe5565b5060408201518160020155606082015181600301908161027c9190610fe5565b50905050505050505050565b5f602052805f5260405f205f91509050805f0180546102a690610db0565b80601f01602080910402602001604051908101604052809291908181526020018280546102d290610db0565b801561031d5780601f106102f45761010080835404028352916020019161031d565b820191905f5260205f20905b81548152906001019060200180831161030057829003601f168201915b50505050509080600101805461033290610db0565b80601f016020809104026020016040519081016040528092919081815260200182805461035e90610db0565b80156103a95780601f10610380576101008083540402835291602001916103a9565b820191905f5260205f20905b81548152906001019060200180831161038c57829003601f168201915b5050505050908060020154908060030180546103c490610db0565b80601f01602080910402602001604051908101604052809291908181526020018280546103f090610db0565b801561043b5780601f106104125761010080835404028352916020019161043b565b820191905f5260205f20905b81548152906001019060200180831161041e57829003601f168201915b5050505050905084565b6060805f805f808661ffff1681526020019081526020015f206040518060800160405290815f8201805461047890610db0565b80601f01602080910402602001604051908101604052809291908181526020018280546104a490610db0565b80156104ef5780601f106104c6576101008083540402835291602001916104ef565b820191905f5260205f20905b8154815290600101906020018083116104d257829003601f168201915b5050505050815260200160018201805461050890610db0565b80601f016020809104026020016040519081016040528092919081815260200182805461053490610db0565b801561057f5780601f106105565761010080835404028352916020019161057f565b820191905f5260205f20905b81548152906001019060200180831161056257829003601f168201915b50505050508152602001600282015481526020016003820180546105a290610db0565b80601f01602080910402602001604051908101604052809291908181526020018280546105ce90610db0565b80156106195780601f106105f057610100808354040283529160200191610619565b820191905f5260205f20905b8154815290600101906020018083116105fc57829003601f168201915b5050505050815250509050805f015181602001518260400151935093509350509193909250565b60605f805f8561ffff1681526020019081526020015f206040518060800160405290815f8201805461067190610db0565b80601f016020809104026020016040519081016040528092919081815260200182805461069d90610db0565b80156106e85780601f106106bf576101008083540402835291602001916106e8565b820191905f5260205f20905b8154815290600101906020018083116106cb57829003601f168201915b5050505050815260200160018201805461070190610db0565b80601f016020809104026020016040519081016040528092919081815260200182805461072d90610db0565b80156107785780601f1061074f57610100808354040283529160200191610778565b820191905f5260205f20905b81548152906001019060200180831161075b57829003601f168201915b505050505081526020016002820154815260200160038201805461079b90610db0565b80601f01602080910402602001604051908101604052809291908181526020018280546107c790610db0565b80156108125780601f106107e957610100808354040283529160200191610812565b820191905f5260205f20905b8154815290600101906020018083116107f557829003601f168201915b5050505050815250509050828051906020012081606001518051906020012014610871576040517f08c379a0000000000000000000000000000000000000000000000000000000008152600401610868906110fe565b60405180910390fd5b805f015191505092915050565b604051806080016040528060608152602001606081526020015f8152602001606081525090565b5f604051905090565b5f80fd5b5f80fd5b5f61ffff82169050919050565b6108cc816108b6565b81146108d6575f80fd5b50565b5f813590506108e7816108c3565b92915050565b5f80fd5b5f80fd5b5f601f19601f8301169050919050565b7f4e487b71000000000000000000000000000000000000000000000000000000005f52604160045260245ffd5b61093b826108f5565b810181811067ffffffffffffffff8211171561095a57610959610905565b5b80604052505050565b5f61096c6108a5565b90506109788282610932565b919050565b5f67ffffffffffffffff82111561099757610996610905565b5b6109a0826108f5565b9050602081019050919050565b828183375f83830152505050565b5f6109cd6109c88461097d565b610963565b9050828152602081018484840111156109e9576109e86108f1565b5b6109f48482856109ad565b509392505050565b5f82601f830112610a1057610a0f6108ed565b5b8135610a208482602086016109bb565b91505092915050565b5f819050919050565b610a3b81610a29565b8114610a45575f80fd5b50565b5f81359050610a5681610a32565b92915050565b5f805f805f60a08688031215610a7557610a746108ae565b5b5f610a82888289016108d9565b955050602086013567ffffffffffffffff811115610aa357610aa26108b2565b5b610aaf888289016109fc565b945050604086013567ffffffffffffffff811115610ad057610acf6108b2565b5b610adc888289016109fc565b9350506060610aed88828901610a48565b925050608086013567ffffffffffffffff811115610b0e57610b0d6108b2565b5b610b1a888289016109fc565b9150509295509295909350565b5f60208284031215610b3c57610b3b6108ae565b5b5f610b4984828501610a48565b91505092915050565b5f81519050919050565b5f82825260208201905092915050565b5f5b83811015610b89578082015181840152602081019050610b6e565b5f8484015250505050565b5f610b9e82610b52565b610ba88185610b5c565b9350610bb8818560208601610b6c565b610bc1816108f5565b840191505092915050565b610bd581610a29565b82525050565b5f6080820190508181035f830152610bf38187610b94565b90508181036020830152610c078186610b94565b9050610c166040830185610bcc565b8181036060830152610c288184610b94565b905095945050505050565b5f60208284031215610c4857610c476108ae565b5b5f610c55848285016108d9565b91505092915050565b5f6060820190508181035f830152610c768186610b94565b90508181036020830152610c8a8185610b94565b9050610c996040830184610bcc565b949350505050565b5f8060408385031215610cb757610cb66108ae565b5b5f610cc4858286016108d9565b925050602083013567ffffffffffffffff811115610ce557610ce46108b2565b5b610cf1858286016109fc565b9150509250929050565b5f6020820190508181035f830152610d138184610b94565b905092915050565b7f416363657373206973206e6f7420616c6c6f77656400000000000000000000005f82015250565b5f610d4f601583610b5c565b9150610d5a82610d1b565b602082019050919050565b5f6020820190508181035f830152610d7c81610d43565b9050919050565b7f4e487b71000000000000000000000000000000000000000000000000000000005f52602260045260245ffd5b5f6002820490506001821680610dc757607f821691505b602082108103610dda57610dd9610d83565b5b50919050565b7f446f63746f7220494420616c72656164792072656769737465726564000000005f82015250565b5f610e14601c83610b5c565b9150610e1f82610de0565b602082019050919050565b5f6020820190508181035f830152610e4181610e08565b9050919050565b5f819050815f5260205f209050919050565b5f6020601f8301049050919050565b5f82821b905092915050565b5f60088302610ea47fffffffffffffffffffffffffffffffffffffffffffffffffffffffffffffffff82610e69565b610eae8683610e69565b95508019841693508086168417925050509392505050565b5f819050919050565b5f610ee9610ee4610edf84610a29565b610ec6565b610a29565b9050919050565b5f819050919050565b610f0283610ecf565b610f16610f0e82610ef0565b848454610e75565b825550505050565b5f90565b610f2a610f1e565b610f35818484610ef9565b505050565b5b81811015610f5857610f4d5f82610f22565b600181019050610f3b565b5050565b601f821115610f9d57610f6e81610e48565b610f7784610e5a565b81016020851015610f86578190505b610f9a610f9285610e5a565b830182610f3a565b50505b505050565b5f82821c905092915050565b5f610fbd5f1984600802610fa2565b1980831691505092915050565b5f610fd58383610fae565b9150826002028217905092915050565b610fee82610b52565b67ffffffffffffffff81111561100757611006610905565b5b6110118254610db0565b61101c828285610f5c565b5f60209050601f83116001811461104d575f841561103b578287015190505b6110458582610fca565b8655506110ac565b601f19841661105b86610e48565b5f5b828110156110825784890151825560018201915060208501945060208101905061105d565b8683101561109f578489015161109b601f891682610fae565b8355505b6001600288020188555050505b505050505050565b7f496e76616c69642063726564656e7469616c73000000000000000000000000005f82015250565b5f6110e8601383610b5c565b91506110f3826110b4565b602082019050919050565b5f6020820190508181035f830152611115816110dc565b905091905056fea26469706673582212200219c6448fc15acc8829160da0664b8ca66305b301b017cddb29651968784aa464736f6c63430008150033",
  "immutableReferences": {},
  "source": "// SPDX-License-Identifier: MIT\r\npragma solidity >=0.4.22 <0.9.0;\r\n\r\ncontract Doctor {\r\n    mapping(uint256 => DoctorDetails) public doctorList;\r\n\r\n    struct DoctorDetails {\r\n        string doctor_name;\r\n        string doctor_specialisation;\r\n        uint256 doctor_ph_no;\r\n        string doctor_pass; // Added doctor password\r\n    }\r\n\r\n    address owner;\r\n\r\nconstructor() {\r\n    owner = msg.sender; // Address of Hospital\r\n}\r\n\r\n    // Modifier to give access only to hospital\r\n    modifier isOwner() {\r\n        require(msg.sender == owner, \"Access is not allowed\");\r\n        _;\r\n    }\r\n\r\n\r\n    function storeDoctorDetails(uint16 doctor_id, string memory _doctor_name, string memory _doctor_specialisation, uint256 _doctor_ph_no, string memory _doctor_pass) public isOwner {\r\n        require(bytes(doctorList[doctor_id].doctor_name).length == 0, \"Doctor ID already registered\");\r\n        DoctorDetails memory doc;\r\n        doc.doctor_name = _doctor_name;\r\n        doc.doctor_specialisation = _doctor_specialisation;\r\n        doc.doctor_ph_no = _doctor_ph_no;\r\n        doc.doctor_pass = _doctor_pass;\r\n        doctorList[doctor_id] = doc;\r\n    }\r\n\r\n    function retrieveDoctorDetails(uint16 doctor_id) public view returns (string memory, string memory, uint256) {\r\n        DoctorDetails memory doc = doctorList[doctor_id];\r\n        return (doc.doctor_name, doc.doctor_specialisation, doc.doctor_ph_no);\r\n    }\r\n\r\n    function doctorLogin(uint16 doctor_id, string memory _doctor_pass) public view returns (string memory) {\r\n        DoctorDetails memory doctor = doctorList[doctor_id];\r\n        require(keccak256(bytes(doctor.doctor_pass)) == keccak256(bytes(_doctor_pass)), \"Invalid credentials\");\r\n        return doctor.doctor_name;\r\n    }\r\n}\r\n",
  "sourcePath": "C:\\Users\\acer\\OneDrive\\Desktop\\Final-3\\contracts\\doctor.sol",
  "compiler": {
    "name": "solc",
    "version": "0.8.21+commit.d9974bed.Emscripten.clang"
  },
  "schemaVersion": "3.4.16",
  "updatedAt": "2024-03-17T13:50:54.379Z",
  "devdoc": {
    "kind": "dev",
    "methods": {},
    "version": 1
  },
  "userdoc": {
    "kind": "user",
    "methods": {},
    "version": 1
  }
}