{
  "contractName": "Hospital",
  "abi": [
    {
      "inputs": [],
      "stateMutability": "nonpayable",
      "type": "constructor"
    },
    {
      "inputs": [
        {
          "internalType": "uint256",
          "name": "",
          "type": "uint256"
        }
      ],
      "name": "hospitalList",
      "outputs": [
        {
          "internalType": "string",
          "name": "hospital_name",
          "type": "string"
        },
        {
          "internalType": "string",
          "name": "hospital_address",
          "type": "string"
        },
        {
          "internalType": "string",
          "name": "hospital_spec",
          "type": "string"
        },
        {
          "internalType": "string",
          "name": "hospital_pass",
          "type": "string"
        }
      ],
      "stateMutability": "view",
      "type": "function"
    },
    {
      "inputs": [
        {
          "internalType": "uint256",
          "name": "hospital_id",
          "type": "uint256"
        },
        {
          "internalType": "string",
          "name": "_hospital_name",
          "type": "string"
        },
        {
          "internalType": "string",
          "name": "_hospital_address",
          "type": "string"
        },
        {
          "internalType": "string",
          "name": "_hospital_spec",
          "type": "string"
        },
        {
          "internalType": "string",
          "name": "_hospital_pass",
          "type": "string"
        }
      ],
      "name": "storeHospitalDetails",
      "outputs": [],
      "stateMutability": "nonpayable",
      "type": "function"
    },
    {
      "inputs": [
        {
          "internalType": "uint256",
          "name": "hospital_id",
          "type": "uint256"
        }
      ],
      "name": "retrieveHospitalDetails",
      "outputs": [
        {
          "internalType": "string",
          "name": "",
          "type": "string"
        },
        {
          "internalType": "string",
          "name": "",
          "type": "string"
        },
        {
          "internalType": "string",
          "name": "",
          "type": "string"
        }
      ],
      "stateMutability": "view",
      "type": "function"
    },
    {
      "inputs": [
        {
          "internalType": "uint256",
          "name": "hospital_id",
          "type": "uint256"
        },
        {
          "internalType": "string",
          "name": "_hospital_pass",
          "type": "string"
        }
      ],
      "name": "hospitalLogin",
      "outputs": [
        {
          "internalType": "string",
          "name": "",
          "type": "string"
        }
      ],
      "stateMutability": "view",
      "type": "function"
    }
  ],
  "bytecode": "0x608060405234801561000f575f80fd5b503360015f6101000a81548173ffffffffffffffffffffffffffffffffffffffff021916908373ffffffffffffffffffffffffffffffffffffffff16021790555061129a8061005d5f395ff3fe608060405234801561000f575f80fd5b506004361061004a575f3560e01c806305336dd91461004e57806319cba49d1461007e5780636a462f10146100b0578063c82412b9146100cc575b5f80fd5b61006860048036038101906100639190610bb4565b6100ff565b6040516100759190610c88565b60405180910390f35b61009860048036038101906100939190610ca8565b6103bf565b6040516100a793929190610cd3565b60405180910390f35b6100ca60048036038101906100c59190610d1d565b61063d565b005b6100e660048036038101906100e19190610ca8565b6107c9565b6040516100f69493929190610e04565b60405180910390f35b60605f805f8581526020019081526020015f206040518060800160405290815f8201805461012c90610e90565b80601f016020809104026020016040519081016040528092919081815260200182805461015890610e90565b80156101a35780601f1061017a576101008083540402835291602001916101a3565b820191905f5260205f20905b81548152906001019060200180831161018657829003601f168201915b505050505081526020016001820180546101bc90610e90565b80601f01602080910402602001604051908101604052809291908181526020018280546101e890610e90565b80156102335780601f1061020a57610100808354040283529160200191610233565b820191905f5260205f20905b81548152906001019060200180831161021657829003601f168201915b5050505050815260200160028201805461024c90610e90565b80601f016020809104026020016040519081016040528092919081815260200182805461027890610e90565b80156102c35780601f1061029a576101008083540402835291602001916102c3565b820191905f5260205f20905b8154815290600101906020018083116102a657829003601f168201915b505050505081526020016003820180546102dc90610e90565b80601f016020809104026020016040519081016040528092919081815260200182805461030890610e90565b80156103535780601f1061032a57610100808354040283529160200191610353565b820191905f5260205f20905b81548152906001019060200180831161033657829003601f168201915b50505050508152505090508280519060200120816060015180519060200120146103b2576040517f08c379a00000000000000000000000000000000000000000000000000000000081526004016103a990610f0a565b60405180910390fd5b805f015191505092915050565b60608060605f805f8681526020019081526020015f206040518060800160405290815f820180546103ef90610e90565b80601f016020809104026020016040519081016040528092919081815260200182805461041b90610e90565b80156104665780601f1061043d57610100808354040283529160200191610466565b820191905f5260205f20905b81548152906001019060200180831161044957829003601f168201915b5050505050815260200160018201805461047f90610e90565b80601f01602080910402602001604051908101604052809291908181526020018280546104ab90610e90565b80156104f65780601f106104cd576101008083540402835291602001916104f6565b820191905f5260205f20905b8154815290600101906020018083116104d957829003601f168201915b5050505050815260200160028201805461050f90610e90565b80601f016020809104026020016040519081016040528092919081815260200182805461053b90610e90565b80156105865780601f1061055d57610100808354040283529160200191610586565b820191905f5260205f20905b81548152906001019060200180831161056957829003601f168201915b5050505050815260200160038201805461059f90610e90565b80601f01602080910402602001604051908101604052809291908181526020018280546105cb90610e90565b80156106165780601f106105ed57610100808354040283529160200191610616565b820191905f5260205f20905b8154815290600101906020018083116105f957829003601f168201915b5050505050815250509050805f015181602001518260400151935093509350509193909250565b60015f9054906101000a900473ffffffffffffffffffffffffffffffffffffffff1673ffffffffffffffffffffffffffffffffffffffff163373ffffffffffffffffffffffffffffffffffffffff16146106cc576040517f08c379a00000000000000000000000000000000000000000000000000000000081526004016106c390610f72565b60405180910390fd5b5f805f8781526020019081526020015f205f0180546106ea90610e90565b90501461072c576040517f08c379a000000000000000000000000000000000000000000000000000000000815260040161072390610fda565b60405180910390fd5b610734610a0c565b84815f0181905250838160200181905250828160400181905250818160600181905250805f808881526020019081526020015f205f820151815f01908161077b9190611195565b5060208201518160010190816107919190611195565b5060408201518160020190816107a79190611195565b5060608201518160030190816107bd9190611195565b50905050505050505050565b5f602052805f5260405f205f91509050805f0180546107e790610e90565b80601f016020809104026020016040519081016040528092919081815260200182805461081390610e90565b801561085e5780601f106108355761010080835404028352916020019161085e565b820191905f5260205f20905b81548152906001019060200180831161084157829003601f168201915b50505050509080600101805461087390610e90565b80601f016020809104026020016040519081016040528092919081815260200182805461089f90610e90565b80156108ea5780601f106108c1576101008083540402835291602001916108ea565b820191905f5260205f20905b8154815290600101906020018083116108cd57829003601f168201915b5050505050908060020180546108ff90610e90565b80601f016020809104026020016040519081016040528092919081815260200182805461092b90610e90565b80156109765780601f1061094d57610100808354040283529160200191610976565b820191905f5260205f20905b81548152906001019060200180831161095957829003601f168201915b50505050509080600301805461098b90610e90565b80601f01602080910402602001604051908101604052809291908181526020018280546109b790610e90565b8015610a025780601f106109d957610100808354040283529160200191610a02565b820191905f5260205f20905b8154815290600101906020018083116109e557829003601f168201915b5050505050905084565b6040518060800160405280606081526020016060815260200160608152602001606081525090565b5f604051905090565b5f80fd5b5f80fd5b5f819050919050565b610a5781610a45565b8114610a61575f80fd5b50565b5f81359050610a7281610a4e565b92915050565b5f80fd5b5f80fd5b5f601f19601f8301169050919050565b7f4e487b71000000000000000000000000000000000000000000000000000000005f52604160045260245ffd5b610ac682610a80565b810181811067ffffffffffffffff82111715610ae557610ae4610a90565b5b80604052505050565b5f610af7610a34565b9050610b038282610abd565b919050565b5f67ffffffffffffffff821115610b2257610b21610a90565b5b610b2b82610a80565b9050602081019050919050565b828183375f83830152505050565b5f610b58610b5384610b08565b610aee565b905082815260208101848484011115610b7457610b73610a7c565b5b610b7f848285610b38565b509392505050565b5f82601f830112610b9b57610b9a610a78565b5b8135610bab848260208601610b46565b91505092915050565b5f8060408385031215610bca57610bc9610a3d565b5b5f610bd785828601610a64565b925050602083013567ffffffffffffffff811115610bf857610bf7610a41565b5b610c0485828601610b87565b9150509250929050565b5f81519050919050565b5f82825260208201905092915050565b5f5b83811015610c45578082015181840152602081019050610c2a565b5f8484015250505050565b5f610c5a82610c0e565b610c648185610c18565b9350610c74818560208601610c28565b610c7d81610a80565b840191505092915050565b5f6020820190508181035f830152610ca08184610c50565b905092915050565b5f60208284031215610cbd57610cbc610a3d565b5b5f610cca84828501610a64565b91505092915050565b5f6060820190508181035f830152610ceb8186610c50565b90508181036020830152610cff8185610c50565b90508181036040830152610d138184610c50565b9050949350505050565b5f805f805f60a08688031215610d3657610d35610a3d565b5b5f610d4388828901610a64565b955050602086013567ffffffffffffffff811115610d6457610d63610a41565b5b610d7088828901610b87565b945050604086013567ffffffffffffffff811115610d9157610d90610a41565b5b610d9d88828901610b87565b935050606086013567ffffffffffffffff811115610dbe57610dbd610a41565b5b610dca88828901610b87565b925050608086013567ffffffffffffffff811115610deb57610dea610a41565b5b610df788828901610b87565b9150509295509295909350565b5f6080820190508181035f830152610e1c8187610c50565b90508181036020830152610e308186610c50565b90508181036040830152610e448185610c50565b90508181036060830152610e588184610c50565b905095945050505050565b7f4e487b71000000000000000000000000000000000000000000000000000000005f52602260045260245ffd5b5f6002820490506001821680610ea757607f821691505b602082108103610eba57610eb9610e63565b5b50919050565b7f496e76616c69642063726564656e7469616c73000000000000000000000000005f82015250565b5f610ef4601383610c18565b9150610eff82610ec0565b602082019050919050565b5f6020820190508181035f830152610f2181610ee8565b9050919050565b7f416363657373206973206e6f7420616c6c6f77656400000000000000000000005f82015250565b5f610f5c601583610c18565b9150610f6782610f28565b602082019050919050565b5f6020820190508181035f830152610f8981610f50565b9050919050565b7f486f73706974616c20494420616c7265616479207265676973746572656400005f82015250565b5f610fc4601e83610c18565b9150610fcf82610f90565b602082019050919050565b5f6020820190508181035f830152610ff181610fb8565b9050919050565b5f819050815f5260205f209050919050565b5f6020601f8301049050919050565b5f82821b905092915050565b5f600883026110547fffffffffffffffffffffffffffffffffffffffffffffffffffffffffffffffff82611019565b61105e8683611019565b95508019841693508086168417925050509392505050565b5f819050919050565b5f61109961109461108f84610a45565b611076565b610a45565b9050919050565b5f819050919050565b6110b28361107f565b6110c66110be826110a0565b848454611025565b825550505050565b5f90565b6110da6110ce565b6110e58184846110a9565b505050565b5b81811015611108576110fd5f826110d2565b6001810190506110eb565b5050565b601f82111561114d5761111e81610ff8565b6111278461100a565b81016020851015611136578190505b61114a6111428561100a565b8301826110ea565b50505b505050565b5f82821c905092915050565b5f61116d5f1984600802611152565b1980831691505092915050565b5f611185838361115e565b9150826002028217905092915050565b61119e82610c0e565b67ffffffffffffffff8111156111b7576111b6610a90565b5b6111c18254610e90565b6111cc82828561110c565b5f60209050601f8311600181146111fd575f84156111eb578287015190505b6111f5858261117a565b86555061125c565b601f19841661120b86610ff8565b5f5b828110156112325784890151825560018201915060208501945060208101905061120d565b8683101561124f578489015161124b601f89168261115e565b8355505b6001600288020188555050505b50505050505056fea2646970667358221220a8764245fd0a9f58d32d59d4508f4942dcaf8842ff5783d8bf1efec57477a5ba64736f6c63430008150033",
  "immutableReferences": {},
  "source": "// SPDX-License-Identifier: MIT\r\npragma solidity >=0.4.22 <0.9.0;\r\n\r\n/**\r\n * @title Hospital Registration\r\n * @dev Store & retrieve Hospital details \r\n */\r\ncontract Hospital  {\r\n    mapping(uint256 => HospitalDetails) public hospitalList;\r\n\r\n    struct HospitalDetails {\r\n        string hospital_name;\r\n        string hospital_address;\r\n        string hospital_spec;\r\n        string hospital_pass;\r\n    }\r\n\r\n    address owner;\r\n\r\n    constructor()  {\r\n        owner = msg.sender; // Address of Hospital\r\n    }\r\n\r\n    // Modifier to give access only to hospital\r\n    modifier isOwner() {\r\n        require(msg.sender == owner, \"Access is not allowed\");\r\n        _;\r\n    }\r\n\r\n    /**\r\n     * @dev Store hospital details\r\n     * @param hospital_id Hospital registration ID\r\n     * @param _hospital_name Name of hospital\r\n     * @param _hospital_spec Hospital specialization\r\n     * @param _hospital_address Hospital address\r\n     * @param _hospital_pass Hospital password\r\n     */\r\n    function storeHospitalDetails(uint256 hospital_id, string memory _hospital_name, string memory _hospital_address, string memory _hospital_spec, string memory _hospital_pass) public isOwner {\r\n        require(bytes(hospitalList[hospital_id].hospital_name).length == 0, \"Hospital ID already registered\");\r\n        HospitalDetails memory h;\r\n        h.hospital_name = _hospital_name;\r\n        h.hospital_address = _hospital_address;\r\n        h.hospital_spec = _hospital_spec;\r\n        h.hospital_pass = _hospital_pass;\r\n        hospitalList[hospital_id] = h;\r\n    }\r\n\r\n    /**\r\n     * @dev Retrieve hospital details\r\n     * @param hospital_id Hospital registration ID\r\n     */\r\n    function retrieveHospitalDetails(uint256 hospital_id) public view returns (string memory, string memory, string memory) {\r\n        HospitalDetails memory h1 = hospitalList[hospital_id];\r\n        return (h1.hospital_name, h1.hospital_address, h1.hospital_spec);\r\n    }\r\n\r\n    /**\r\n     * @dev Hospital login function\r\n     * @param hospital_id Hospital registration ID\r\n     * @param _hospital_pass Hospital password\r\n     */\r\n    function hospitalLogin(uint256 hospital_id, string memory _hospital_pass) public view returns (string memory) {\r\n        HospitalDetails memory hospital = hospitalList[hospital_id];\r\n        require(keccak256(bytes(hospital.hospital_pass)) == keccak256(bytes(_hospital_pass)), \"Invalid credentials\");\r\n        return hospital.hospital_name;\r\n    }\r\n}\r\n",
  "sourcePath": "C:\\Users\\acer\\OneDrive\\Desktop\\Final-3\\contracts\\hospital.sol",
  "compiler": {
    "name": "solc",
    "version": "0.8.21+commit.d9974bed.Emscripten.clang"
  },
  "schemaVersion": "3.4.16",
  "updatedAt": "2024-03-17T13:50:54.386Z",
  "devdoc": {
    "details": "Store & retrieve Hospital details ",
    "kind": "dev",
    "methods": {
      "hospitalLogin(uint256,string)": {
        "details": "Hospital login function",
        "params": {
          "_hospital_pass": "Hospital password",
          "hospital_id": "Hospital registration ID"
        }
      },
      "retrieveHospitalDetails(uint256)": {
        "details": "Retrieve hospital details",
        "params": {
          "hospital_id": "Hospital registration ID"
        }
      },
      "storeHospitalDetails(uint256,string,string,string,string)": {
        "details": "Store hospital details",
        "params": {
          "_hospital_address": "Hospital address",
          "_hospital_name": "Name of hospital",
          "_hospital_pass": "Hospital password",
          "_hospital_spec": "Hospital specialization",
          "hospital_id": "Hospital registration ID"
        }
      }
    },
    "title": "Hospital Registration",
    "version": 1
  },
  "userdoc": {
    "kind": "user",
    "methods": {},
    "version": 1
  }
}