{
  "contractName": "MedicalRecords",
  "abi": [
    {
      "inputs": [],
      "stateMutability": "nonpayable",
      "type": "constructor"
    },
    {
      "inputs": [
        {
          "internalType": "uint256",
          "name": "",
          "type": "uint256"
        }
      ],
      "name": "patients",
      "outputs": [
        {
          "internalType": "uint256",
          "name": "patientId",
          "type": "uint256"
        }
      ],
      "stateMutability": "view",
      "type": "function"
    },
    {
      "inputs": [
        {
          "internalType": "uint256",
          "name": "patientId",
          "type": "uint256"
        },
        {
          "internalType": "uint256",
          "name": "recordId",
          "type": "uint256"
        },
        {
          "internalType": "string",
          "name": "_complaints",
          "type": "string"
        },
        {
          "internalType": "string",
          "name": "_duration",
          "type": "string"
        },
        {
          "internalType": "string",
          "name": "_treatment",
          "type": "string"
        },
        {
          "internalType": "string",
          "name": "_dateTreatment",
          "type": "string"
        },
        {
          "internalType": "string",
          "name": "_prescription",
          "type": "string"
        },
        {
          "internalType": "uint256",
          "name": "_doctorId",
          "type": "uint256"
        },
        {
          "internalType": "uint256",
          "name": "_hospitalId",
          "type": "uint256"
        },
        {
          "internalType": "string",
          "name": "_discharge",
          "type": "string"
        },
        {
          "internalType": "string",
          "name": "_followUp",
          "type": "string"
        }
      ],
      "name": "addIllnessAndTreatment",
      "outputs": [],
      "stateMutability": "nonpayable",
      "type": "function"
    },
    {
      "inputs": [
        {
          "internalType": "uint256",
          "name": "patientId",
          "type": "uint256"
        },
        {
          "internalType": "uint256",
          "name": "recordId",
          "type": "uint256"
        }
      ],
      "name": "getIllnessAndTreatment",
      "outputs": [
        {
          "internalType": "string",
          "name": "",
          "type": "string"
        },
        {
          "internalType": "string",
          "name": "",
          "type": "string"
        },
        {
          "internalType": "string",
          "name": "",
          "type": "string"
        },
        {
          "internalType": "string",
          "name": "",
          "type": "string"
        },
        {
          "internalType": "uint256",
          "name": "",
          "type": "uint256"
        },
        {
          "internalType": "uint256",
          "name": "",
          "type": "uint256"
        },
        {
          "internalType": "string",
          "name": "",
          "type": "string"
        },
        {
          "internalType": "string",
          "name": "",
          "type": "string"
        }
      ],
      "stateMutability": "view",
      "type": "function"
    },
    {
      "inputs": [
        {
          "internalType": "uint256",
          "name": "patientId",
          "type": "uint256"
        }
      ],
      "name": "getRecordIds",
      "outputs": [
        {
          "internalType": "uint256[]",
          "name": "",
          "type": "uint256[]"
        }
      ],
      "stateMutability": "view",
      "type": "function"
    }
  ],
  "bytecode": "0x608060405234801561000f575f80fd5b503360015f6101000a81548173ffffffffffffffffffffffffffffffffffffffff021916908373ffffffffffffffffffffffffffffffffffffffff1602179055506111618061005d5f395ff3fe608060405234801561000f575f80fd5b506004361061004a575f3560e01c806393119a831461004e5780639bf2476e1461007e578063bd4376ea146100ae578063f12a8b73146100e5575b5f80fd5b61006860048036038101906100639190610885565b610101565b60405161007591906108bf565b60405180910390f35b61009860048036038101906100939190610885565b61011a565b6040516100a5919061098f565b60405180910390f35b6100c860048036038101906100c391906109af565b610183565b6040516100dc989796959493929190610a77565b60405180910390f35b6100ff60048036038101906100fa9190610c49565b610649565b005b5f602052805f5260405f205f91509050805f0154905081565b60605f808381526020019081526020015f2060020180548060200260200160405190810160405280929190818152602001828054801561017757602002820191905f5260205f20905b815481526020019060010190808311610163575b50505050509050919050565b6060806060805f806060805f805f8c81526020019081526020015f206001015f8b81526020019081526020015f206040518060400160405290815f82016040518060400160405290815f820180546101da90610e27565b80601f016020809104026020016040519081016040528092919081815260200182805461020690610e27565b80156102515780601f1061022857610100808354040283529160200191610251565b820191905f5260205f20905b81548152906001019060200180831161023457829003601f168201915b5050505050815260200160018201805461026a90610e27565b80601f016020809104026020016040519081016040528092919081815260200182805461029690610e27565b80156102e15780601f106102b8576101008083540402835291602001916102e1565b820191905f5260205f20905b8154815290600101906020018083116102c457829003601f168201915b5050505050815250508152602001600282016040518060e00160405290815f8201805461030d90610e27565b80601f016020809104026020016040519081016040528092919081815260200182805461033990610e27565b80156103845780601f1061035b57610100808354040283529160200191610384565b820191905f5260205f20905b81548152906001019060200180831161036757829003601f168201915b5050505050815260200160018201805461039d90610e27565b80601f01602080910402602001604051908101604052809291908181526020018280546103c990610e27565b80156104145780601f106103eb57610100808354040283529160200191610414565b820191905f5260205f20905b8154815290600101906020018083116103f757829003601f168201915b5050505050815260200160028201805461042d90610e27565b80601f016020809104026020016040519081016040528092919081815260200182805461045990610e27565b80156104a45780601f1061047b576101008083540402835291602001916104a4565b820191905f5260205f20905b81548152906001019060200180831161048757829003601f168201915b5050505050815260200160038201548152602001600482015481526020016005820180546104d190610e27565b80601f01602080910402602001604051908101604052809291908181526020018280546104fd90610e27565b80156105485780601f1061051f57610100808354040283529160200191610548565b820191905f5260205f20905b81548152906001019060200180831161052b57829003601f168201915b5050505050815260200160068201805461056190610e27565b80601f016020809104026020016040519081016040528092919081815260200182805461058d90610e27565b80156105d85780601f106105af576101008083540402835291602001916105d8565b820191905f5260205f20905b8154815290600101906020018083116105bb57829003601f168201915b505050505081525050815250509050805f01515f0151815f01516020015182602001515f0151836020015160200151846020015160600151856020015160800151866020015160a00151876020015160c0015198509850985098509850985098509850509295985092959890939650565b60015f9054906101000a900473ffffffffffffffffffffffffffffffffffffffff1673ffffffffffffffffffffffffffffffffffffffff163373ffffffffffffffffffffffffffffffffffffffff16146106d8576040517f08c379a00000000000000000000000000000000000000000000000000000000081526004016106cf90610ea1565b60405180910390fd5b5f805f8d81526020019081526020015f206001015f8c81526020019081526020015f20905060405180604001604052808b81526020018a815250815f015f820151815f019081610728919061105c565b50602082015181600101908161073e919061105c565b509050506040518060e0016040528089815260200188815260200187815260200186815260200185815260200184815260200183815250816002015f820151815f01908161078c919061105c565b5060208201518160010190816107a2919061105c565b5060408201518160020190816107b8919061105c565b50606082015181600301556080820151816004015560a08201518160050190816107e2919061105c565b5060c08201518160060190816107f8919061105c565b509050505f808d81526020019081526020015f206002018b908060018154018082558091505060019003905f5260205f20015f9091909190915055505050505050505050505050565b5f604051905090565b5f80fd5b5f80fd5b5f819050919050565b61086481610852565b811461086e575f80fd5b50565b5f8135905061087f8161085b565b92915050565b5f6020828403121561089a5761089961084a565b5b5f6108a784828501610871565b91505092915050565b6108b981610852565b82525050565b5f6020820190506108d25f8301846108b0565b92915050565b5f81519050919050565b5f82825260208201905092915050565b5f819050602082019050919050565b61090a81610852565b82525050565b5f61091b8383610901565b60208301905092915050565b5f602082019050919050565b5f61093d826108d8565b61094781856108e2565b9350610952836108f2565b805f5b838110156109825781516109698882610910565b975061097483610927565b925050600181019050610955565b5085935050505092915050565b5f6020820190508181035f8301526109a78184610933565b905092915050565b5f80604083850312156109c5576109c461084a565b5b5f6109d285828601610871565b92505060206109e385828601610871565b9150509250929050565b5f81519050919050565b5f82825260208201905092915050565b5f5b83811015610a24578082015181840152602081019050610a09565b5f8484015250505050565b5f601f19601f8301169050919050565b5f610a49826109ed565b610a5381856109f7565b9350610a63818560208601610a07565b610a6c81610a2f565b840191505092915050565b5f610100820190508181035f830152610a90818b610a3f565b90508181036020830152610aa4818a610a3f565b90508181036040830152610ab88189610a3f565b90508181036060830152610acc8188610a3f565b9050610adb60808301876108b0565b610ae860a08301866108b0565b81810360c0830152610afa8185610a3f565b905081810360e0830152610b0e8184610a3f565b90509998505050505050505050565b5f80fd5b5f80fd5b7f4e487b71000000000000000000000000000000000000000000000000000000005f52604160045260245ffd5b610b5b82610a2f565b810181811067ffffffffffffffff82111715610b7a57610b79610b25565b5b80604052505050565b5f610b8c610841565b9050610b988282610b52565b919050565b5f67ffffffffffffffff821115610bb757610bb6610b25565b5b610bc082610a2f565b9050602081019050919050565b828183375f83830152505050565b5f610bed610be884610b9d565b610b83565b905082815260208101848484011115610c0957610c08610b21565b5b610c14848285610bcd565b509392505050565b5f82601f830112610c3057610c2f610b1d565b5b8135610c40848260208601610bdb565b91505092915050565b5f805f805f805f805f805f6101608c8e031215610c6957610c6861084a565b5b5f610c768e828f01610871565b9b50506020610c878e828f01610871565b9a505060408c013567ffffffffffffffff811115610ca857610ca761084e565b5b610cb48e828f01610c1c565b99505060608c013567ffffffffffffffff811115610cd557610cd461084e565b5b610ce18e828f01610c1c565b98505060808c013567ffffffffffffffff811115610d0257610d0161084e565b5b610d0e8e828f01610c1c565b97505060a08c013567ffffffffffffffff811115610d2f57610d2e61084e565b5b610d3b8e828f01610c1c565b96505060c08c013567ffffffffffffffff811115610d5c57610d5b61084e565b5b610d688e828f01610c1c565b95505060e0610d798e828f01610871565b945050610100610d8b8e828f01610871565b9350506101208c013567ffffffffffffffff811115610dad57610dac61084e565b5b610db98e828f01610c1c565b9250506101408c013567ffffffffffffffff811115610ddb57610dda61084e565b5b610de78e828f01610c1c565b9150509295989b509295989b9093969950565b7f4e487b71000000000000000000000000000000000000000000000000000000005f52602260045260245ffd5b5f6002820490506001821680610e3e57607f821691505b602082108103610e5157610e50610dfa565b5b50919050565b7f416363657373206973206e6f7420616c6c6f77656400000000000000000000005f82015250565b5f610e8b6015836109f7565b9150610e9682610e57565b602082019050919050565b5f6020820190508181035f830152610eb881610e7f565b9050919050565b5f819050815f5260205f209050919050565b5f6020601f8301049050919050565b5f82821b905092915050565b5f60088302610f1b7fffffffffffffffffffffffffffffffffffffffffffffffffffffffffffffffff82610ee0565b610f258683610ee0565b95508019841693508086168417925050509392505050565b5f819050919050565b5f610f60610f5b610f5684610852565b610f3d565b610852565b9050919050565b5f819050919050565b610f7983610f46565b610f8d610f8582610f67565b848454610eec565b825550505050565b5f90565b610fa1610f95565b610fac818484610f70565b505050565b5b81811015610fcf57610fc45f82610f99565b600181019050610fb2565b5050565b601f82111561101457610fe581610ebf565b610fee84610ed1565b81016020851015610ffd578190505b61101161100985610ed1565b830182610fb1565b50505b505050565b5f82821c905092915050565b5f6110345f1984600802611019565b1980831691505092915050565b5f61104c8383611025565b9150826002028217905092915050565b611065826109ed565b67ffffffffffffffff81111561107e5761107d610b25565b5b6110888254610e27565b611093828285610fd3565b5f60209050601f8311600181146110c4575f84156110b2578287015190505b6110bc8582611041565b865550611123565b601f1984166110d286610ebf565b5f5b828110156110f9578489015182556001820191506020850194506020810190506110d4565b868310156111165784890151611112601f891682611025565b8355505b6001600288020188555050505b50505050505056fea2646970667358221220440f2b1bfc09661c327a72ffa5bb0ac9f520b91d1fe1a850c63a05c57058cb0864736f6c63430008150033",
  "immutableReferences": {},
  "source": "// SPDX-License-Identifier: MIT\r\npragma solidity >=0.4.22 <0.9.0;\r\n\r\ncontract MedicalRecords {\r\n\r\n    struct PresentIllness {\r\n        string complaints;\r\n        string duration;\r\n    }\r\n    \r\n    struct Treatment {\r\n        string treatment;\r\n        string dateTreatment;\r\n        string prescription;\r\n        uint256 doctorId;\r\n        uint256 hospitalId;\r\n        string discharge;\r\n        string followUp;\r\n    }\r\n    \r\n    struct Record {\r\n        PresentIllness presentIllness;\r\n        Treatment treatment;\r\n    }\r\n    \r\n    struct Patient {\r\n        uint256 patientId;\r\n        mapping(uint256 => Record) records;\r\n        uint256[] recordIds; // Added recordIds array\r\n    }\r\n    \r\n    mapping(uint256 => Patient) public patients;\r\n    address owner;\r\n     \r\n    /**\r\n     * @dev Create the contract and set the owner to the deploying address\r\n     */\r\n    constructor() {\r\n        owner = msg.sender; // Address of the owner (typically a doctor)\r\n    }\r\n    \r\n    // Modifier to give access only to the owner (doctor)\r\n    modifier isOwner() {\r\n        require(msg.sender == owner, \"Access is not allowed\");\r\n        _;\r\n    }\r\n\r\n    function addIllnessAndTreatment(uint256 patientId, uint256 recordId, string memory _complaints, string memory _duration, string memory _treatment, string memory _dateTreatment, string memory _prescription, uint256 _doctorId, uint256 _hospitalId, string memory _discharge, string memory _followUp) public isOwner {\r\n        Record storage record = patients[patientId].records[recordId];\r\n        record.presentIllness = PresentIllness(_complaints, _duration);\r\n        record.treatment = Treatment(_treatment, _dateTreatment, _prescription, _doctorId, _hospitalId, _discharge, _followUp);\r\n\r\n        // Add recordId to the recordIds array\r\n        patients[patientId].recordIds.push(recordId);\r\n    }\r\n          \r\n    function getIllnessAndTreatment(uint256 patientId, uint256 recordId) public view returns (string memory, string memory, string memory, string memory, uint256, uint256, string memory, string memory) {\r\n        Record memory record = patients[patientId].records[recordId];\r\n        return (record.presentIllness.complaints, record.presentIllness.duration, record.treatment.treatment, record.treatment.dateTreatment, record.treatment.doctorId, record.treatment.hospitalId, record.treatment.discharge, record.treatment.followUp);\r\n    }\r\n\r\n    function getRecordIds(uint256 patientId) public view returns (uint256[] memory) {\r\n        return patients[patientId].recordIds;\r\n    }\r\n}\r\n",
  "sourcePath": "C:\\Users\\acer\\OneDrive\\Desktop\\Final-3\\contracts\\records.sol",
  "compiler": {
    "name": "solc",
    "version": "0.8.21+commit.d9974bed.Emscripten.clang"
  },
  "schemaVersion": "3.4.16",
  "updatedAt": "2024-03-17T13:50:54.403Z",
  "devdoc": {
    "kind": "dev",
    "methods": {
      "constructor": {
        "details": "Create the contract and set the owner to the deploying address"
      }
    },
    "version": 1
  },
  "userdoc": {
    "kind": "user",
    "methods": {},
    "version": 1
  }
}