{
  "contractName": "Patient",
  "abi": [
    {
      "inputs": [],
      "stateMutability": "nonpayable",
      "type": "constructor"
    },
    {
      "inputs": [
        {
          "internalType": "uint256",
          "name": "patient_id",
          "type": "uint256"
        },
        {
          "internalType": "string",
          "name": "_patient_name",
          "type": "string"
        },
        {
          "internalType": "uint256",
          "name": "_age",
          "type": "uint256"
        },
        {
          "internalType": "string",
          "name": "_gender",
          "type": "string"
        },
        {
          "internalType": "string",
          "name": "_patient_address",
          "type": "string"
        },
        {
          "internalType": "uint256",
          "name": "_phone_no",
          "type": "uint256"
        },
        {
          "internalType": "string",
          "name": "_email_id",
          "type": "string"
        },
        {
          "internalType": "string",
          "name": "_date",
          "type": "string"
        }
      ],
      "name": "store_patient_details",
      "outputs": [],
      "stateMutability": "nonpayable",
      "type": "function"
    },
    {
      "inputs": [
        {
          "internalType": "uint256",
          "name": "patient_id",
          "type": "uint256"
        }
      ],
      "name": "retreive_patient_details",
      "outputs": [
        {
          "internalType": "string",
          "name": "",
          "type": "string"
        },
        {
          "internalType": "uint256",
          "name": "",
          "type": "uint256"
        },
        {
          "internalType": "string",
          "name": "",
          "type": "string"
        },
        {
          "internalType": "string",
          "name": "",
          "type": "string"
        },
        {
          "internalType": "uint256",
          "name": "",
          "type": "uint256"
        },
        {
          "internalType": "string",
          "name": "",
          "type": "string"
        },
        {
          "internalType": "string",
          "name": "",
          "type": "string"
        }
      ],
      "stateMutability": "view",
      "type": "function"
    }
  ],
  "bytecode": "0x608060405234801561000f575f80fd5b5033600a5f6101000a81548173ffffffffffffffffffffffffffffffffffffffff021916908373ffffffffffffffffffffffffffffffffffffffff160217905550610df68061005d5f395ff3fe608060405234801561000f575f80fd5b5060043610610034575f3560e01c806365d4352a14610038578063874f33d71461006e575b5f80fd5b610052600480360381019061004d91906105d8565b61008a565b604051610065979695949392919061069c565b60405180910390f35b61008860048036038101906100839190610858565b6103e6565b005b60605f6060805f6060805f805f8a81526020019081526020015f20604051806101200160405290815f820180546100c0906109c2565b80601f01602080910402602001604051908101604052809291908181526020018280546100ec906109c2565b80156101375780601f1061010e57610100808354040283529160200191610137565b820191905f5260205f20905b81548152906001019060200180831161011a57829003601f168201915b505050505081526020016001820154815260200160028201805461015a906109c2565b80601f0160208091040260200160405190810160405280929190818152602001828054610186906109c2565b80156101d15780601f106101a8576101008083540402835291602001916101d1565b820191905f5260205f20905b8154815290600101906020018083116101b457829003601f168201915b505050505081526020016003820180546101ea906109c2565b80601f0160208091040260200160405190810160405280929190818152602001828054610216906109c2565b80156102615780601f1061023857610100808354040283529160200191610261565b820191905f5260205f20905b81548152906001019060200180831161024457829003601f168201915b5050505050815260200160048201548152602001600582018054610284906109c2565b80601f01602080910402602001604051908101604052809291908181526020018280546102b0906109c2565b80156102fb5780601f106102d2576101008083540402835291602001916102fb565b820191905f5260205f20905b8154815290600101906020018083116102de57829003601f168201915b50505050508152602001600682018054610314906109c2565b80601f0160208091040260200160405190810160405280929190818152602001828054610340906109c2565b801561038b5780601f106103625761010080835404028352916020019161038b565b820191905f5260205f20905b81548152906001019060200180831161036e57829003601f168201915b50505050508152602001600782015481526020016008820154815250509050805f015181602001518260400151836060015184608001518560a001518660c00151975097509750975097509750975050919395979092949650565b600a5f9054906101000a900473ffffffffffffffffffffffffffffffffffffffff1673ffffffffffffffffffffffffffffffffffffffff163373ffffffffffffffffffffffffffffffffffffffff1614610475576040517f08c379a000000000000000000000000000000000000000000000000000000000815260040161046c90610a3c565b60405180910390fd5b8660015f0190816104869190610bf7565b5085600180018190555084600160020190816104a29190610bf7565b5083600160030190816104b59190610bf7565b508260016004018190555081600160050190816104d29190610bf7565b5080600160060190816104e59190610bf7565b5060015f808a81526020019081526020015f205f8201815f01908161050a9190610cdb565b5060018201548160010155600282018160020190816105299190610cdb565b506003820181600301908161053e9190610cdb565b50600482015481600401556005820181600501908161055d9190610cdb565b50600682018160060190816105729190610cdb565b5060078201548160070155600882015481600801559050505050505050505050565b5f604051905090565b5f80fd5b5f80fd5b5f819050919050565b6105b7816105a5565b81146105c1575f80fd5b50565b5f813590506105d2816105ae565b92915050565b5f602082840312156105ed576105ec61059d565b5b5f6105fa848285016105c4565b91505092915050565b5f81519050919050565b5f82825260208201905092915050565b5f5b8381101561063a57808201518184015260208101905061061f565b5f8484015250505050565b5f601f19601f8301169050919050565b5f61065f82610603565b610669818561060d565b935061067981856020860161061d565b61068281610645565b840191505092915050565b610696816105a5565b82525050565b5f60e0820190508181035f8301526106b4818a610655565b90506106c3602083018961068d565b81810360408301526106d58188610655565b905081810360608301526106e98187610655565b90506106f8608083018661068d565b81810360a083015261070a8185610655565b905081810360c083015261071e8184610655565b905098975050505050505050565b5f80fd5b5f80fd5b7f4e487b71000000000000000000000000000000000000000000000000000000005f52604160045260245ffd5b61076a82610645565b810181811067ffffffffffffffff8211171561078957610788610734565b5b80604052505050565b5f61079b610594565b90506107a78282610761565b919050565b5f67ffffffffffffffff8211156107c6576107c5610734565b5b6107cf82610645565b9050602081019050919050565b828183375f83830152505050565b5f6107fc6107f7846107ac565b610792565b90508281526020810184848401111561081857610817610730565b5b6108238482856107dc565b509392505050565b5f82601f83011261083f5761083e61072c565b5b813561084f8482602086016107ea565b91505092915050565b5f805f805f805f80610100898b0312156108755761087461059d565b5b5f6108828b828c016105c4565b985050602089013567ffffffffffffffff8111156108a3576108a26105a1565b5b6108af8b828c0161082b565b97505060406108c08b828c016105c4565b965050606089013567ffffffffffffffff8111156108e1576108e06105a1565b5b6108ed8b828c0161082b565b955050608089013567ffffffffffffffff81111561090e5761090d6105a1565b5b61091a8b828c0161082b565b94505060a061092b8b828c016105c4565b93505060c089013567ffffffffffffffff81111561094c5761094b6105a1565b5b6109588b828c0161082b565b92505060e089013567ffffffffffffffff811115610979576109786105a1565b5b6109858b828c0161082b565b9150509295985092959890939650565b7f4e487b71000000000000000000000000000000000000000000000000000000005f52602260045260245ffd5b5f60028204905060018216806109d957607f821691505b6020821081036109ec576109eb610995565b5b50919050565b7f416363657373206973206e6f7420616c6c6f77656400000000000000000000005f82015250565b5f610a2660158361060d565b9150610a31826109f2565b602082019050919050565b5f6020820190508181035f830152610a5381610a1a565b9050919050565b5f819050815f5260205f209050919050565b5f6020601f8301049050919050565b5f82821b905092915050565b5f60088302610ab67fffffffffffffffffffffffffffffffffffffffffffffffffffffffffffffffff82610a7b565b610ac08683610a7b565b95508019841693508086168417925050509392505050565b5f819050919050565b5f610afb610af6610af1846105a5565b610ad8565b6105a5565b9050919050565b5f819050919050565b610b1483610ae1565b610b28610b2082610b02565b848454610a87565b825550505050565b5f90565b610b3c610b30565b610b47818484610b0b565b505050565b5b81811015610b6a57610b5f5f82610b34565b600181019050610b4d565b5050565b601f821115610baf57610b8081610a5a565b610b8984610a6c565b81016020851015610b98578190505b610bac610ba485610a6c565b830182610b4c565b50505b505050565b5f82821c905092915050565b5f610bcf5f1984600802610bb4565b1980831691505092915050565b5f610be78383610bc0565b9150826002028217905092915050565b610c0082610603565b67ffffffffffffffff811115610c1957610c18610734565b5b610c2382546109c2565b610c2e828285610b6e565b5f60209050601f831160018114610c5f575f8415610c4d578287015190505b610c578582610bdc565b865550610cbe565b601f198416610c6d86610a5a565b5f5b82811015610c9457848901518255600182019150602085019450602081019050610c6f565b86831015610cb15784890151610cad601f891682610bc0565b8355505b6001600288020188555050505b505050505050565b5f81549050610cd4816109c2565b9050919050565b818103610ce9575050610dbe565b610cf282610cc6565b67ffffffffffffffff811115610d0b57610d0a610734565b5b610d1582546109c2565b610d20828285610b6e565b5f601f831160018114610d4d575f8415610d3b578287015490505b610d458582610bdc565b865550610db7565b601f198416610d5b87610a5a565b9650610d6686610a5a565b5f5b82811015610d8d57848901548255600182019150600185019450602081019050610d68565b86831015610daa5784890154610da6601f891682610bc0565b8355505b6001600288020188555050505b5050505050505b56fea2646970667358221220fcfc5250ead2955bba81d8d93bc39a7e8282957ab7dca024b34b88e356f1803064736f6c63430008150033",
  "immutableReferences": {},
  "source": "// SPDX-License-Identifier: MIT\r\npragma solidity >=0.4.22 <0.9.0;\r\n/**\r\n * @title Medical records\r\n * @dev Store & retreive patient details \r\n */\r\n\r\n \r\ncontract Patient {\r\n    \r\n    \r\n    mapping(uint256 => patient) patientlist;\r\n    \r\n    \r\n     struct patient{\r\n     string patient_name;\r\n     uint256 age;\r\n     string gender;\r\n     string patient_address;\r\n     uint256 phone_no;\r\n     string email_id;\r\n     string date;\r\n     uint256 doctor_id;\r\n     uint256 hospital_id;\r\n\r\n     }\r\n     patient p;\r\n     \r\n     address owner;\r\n     \r\n      constructor()    {\r\n          owner = msg.sender; //Address of Hospital\r\n      }\r\n      \r\n      \r\n      // modifier to give access only to hospital\r\n      modifier isOwner() {\r\n\r\n         require(msg.sender == owner, \"Access is not allowed\");\r\n\r\n         _;\r\n\r\n     }\r\n      \r\n     /**\r\n     * @dev Store patient details\r\n     * @param patient_id patient id\r\n     * @param _patient_name patient name\r\n     * @param _age age\r\n     * @param _gender gender\r\n   \r\n     * @param _patient_address address\r\n     * @param _phone_no phone number\r\n     * @param _email_id mail id\r\n     * @param _date date\r\n     */\r\n     function store_patient_details(uint256 patient_id,string memory _patient_name,uint256 _age,string memory _gender,string memory _patient_address,uint256 _phone_no,string memory _email_id,string memory _date)public isOwner {\r\n     \r\n        \r\n         p.patient_name=_patient_name;\r\n         p.age=_age;\r\n         p.gender=_gender;\r\n         p.patient_address=_patient_address;\r\n         p.phone_no=_phone_no;\r\n         p.email_id=_email_id;\r\n         p.date=_date;\r\n\r\n         \r\n        patientlist[patient_id] = p;\r\n         }\r\n         \r\n \r\n     /**\r\n     * @dev Retreive patient details\r\n     * @param patient_id patient id\r\n     * */\r\n     function retreive_patient_details(uint256 patient_id) public view returns (string memory,uint256,string memory,string memory,uint256,string memory,string memory){\r\n         patient memory p1 = patientlist[patient_id];\r\n         \r\n     return (p1.patient_name,p1.age,p1.gender,p1.patient_address,p1.phone_no,p1.email_id,p1.date);\r\n    \r\n     }\r\n        \r\n}\r\n",
  "sourcePath": "C:\\Users\\acer\\OneDrive\\Desktop\\Final-3\\contracts\\patient.sol",
  "compiler": {
    "name": "solc",
    "version": "0.8.21+commit.d9974bed.Emscripten.clang"
  },
  "schemaVersion": "3.4.16",
  "updatedAt": "2024-03-17T13:50:54.394Z",
  "devdoc": {
    "details": "Store & retreive patient details ",
    "kind": "dev",
    "methods": {
      "retreive_patient_details(uint256)": {
        "details": "Retreive patient details",
        "params": {
          "patient_id": "patient id "
        }
      },
      "store_patient_details(uint256,string,uint256,string,string,uint256,string,string)": {
        "details": "Store patient details",
        "params": {
          "_age": "age",
          "_date": "date",
          "_email_id": "mail id",
          "_gender": "gender",
          "_patient_address": "address",
          "_patient_name": "patient name",
          "_phone_no": "phone number",
          "patient_id": "patient id"
        }
      }
    },
    "title": "Medical records",
    "version": 1
  },
  "userdoc": {
    "kind": "user",
    "methods": {},
    "version": 1
  }
}